{
  "_format": "hh-sol-artifact-1",
  "contractName": "ProfileImageNfts",
  "sourceName": "contracts/MintProfileImage.sol",
  "abi": [
    {
      "inputs": [],
      "stateMutability": "nonpayable",
      "type": "constructor"
    },
    {
      "anonymous": false,
      "inputs": [
        {
          "indexed": true,
          "internalType": "address",
          "name": "owner",
          "type": "address"
        },
        {
          "indexed": true,
          "internalType": "address",
          "name": "approved",
          "type": "address"
        },
        {
          "indexed": true,
          "internalType": "uint256",
          "name": "tokenId",
          "type": "uint256"
        }
      ],
      "name": "Approval",
      "type": "event"
    },
    {
      "anonymous": false,
      "inputs": [
        {
          "indexed": true,
          "internalType": "address",
          "name": "owner",
          "type": "address"
        },
        {
          "indexed": true,
          "internalType": "address",
          "name": "operator",
          "type": "address"
        },
        {
          "indexed": false,
          "internalType": "bool",
          "name": "approved",
          "type": "bool"
        }
      ],
      "name": "ApprovalForAll",
      "type": "event"
    },
    {
      "anonymous": false,
      "inputs": [
        {
          "indexed": true,
          "internalType": "address",
          "name": "previousOwner",
          "type": "address"
        },
        {
          "indexed": true,
          "internalType": "address",
          "name": "newOwner",
          "type": "address"
        }
      ],
      "name": "OwnershipTransferred",
      "type": "event"
    },
    {
      "anonymous": false,
      "inputs": [
        {
          "indexed": true,
          "internalType": "address",
          "name": "from",
          "type": "address"
        },
        {
          "indexed": true,
          "internalType": "address",
          "name": "to",
          "type": "address"
        },
        {
          "indexed": true,
          "internalType": "uint256",
          "name": "tokenId",
          "type": "uint256"
        }
      ],
      "name": "Transfer",
      "type": "event"
    },
    {
      "inputs": [
        {
          "internalType": "address",
          "name": "to",
          "type": "address"
        },
        {
          "internalType": "uint256",
          "name": "tokenId",
          "type": "uint256"
        }
      ],
      "name": "approve",
      "outputs": [],
      "stateMutability": "nonpayable",
      "type": "function"
    },
    {
      "inputs": [
        {
          "internalType": "address",
          "name": "owner",
          "type": "address"
        }
      ],
      "name": "balanceOf",
      "outputs": [
        {
          "internalType": "uint256",
          "name": "",
          "type": "uint256"
        }
      ],
      "stateMutability": "view",
      "type": "function"
    },
    {
      "inputs": [],
      "name": "getAlltoken",
      "outputs": [
        {
          "components": [
            {
              "internalType": "uint256",
              "name": "id",
              "type": "uint256"
            },
            {
              "internalType": "string",
              "name": "uri",
              "type": "string"
            },
            {
              "internalType": "string",
              "name": "space",
              "type": "string"
            }
          ],
          "internalType": "struct ProfileImageNfts.RenderToken[]",
          "name": "",
          "type": "tuple[]"
        }
      ],
      "stateMutability": "view",
      "type": "function"
    },
    {
      "inputs": [
        {
          "internalType": "uint256",
          "name": "tokenId",
          "type": "uint256"
        }
      ],
      "name": "getApproved",
      "outputs": [
        {
          "internalType": "address",
          "name": "",
          "type": "address"
        }
      ],
      "stateMutability": "view",
      "type": "function"
    },
    {
      "inputs": [
        {
          "internalType": "address",
          "name": "owner",
          "type": "address"
        },
        {
          "internalType": "address",
          "name": "operator",
          "type": "address"
        }
      ],
      "name": "isApprovedForAll",
      "outputs": [
        {
          "internalType": "bool",
          "name": "",
          "type": "bool"
        }
      ],
      "stateMutability": "view",
      "type": "function"
    },
    {
      "inputs": [
        {
          "internalType": "address",
          "name": "recipents",
          "type": "address"
        },
        {
          "internalType": "string",
          "name": "_uri",
          "type": "string"
        }
      ],
      "name": "mint",
      "outputs": [
        {
          "internalType": "uint256",
          "name": "",
          "type": "uint256"
        }
      ],
      "stateMutability": "nonpayable",
      "type": "function"
    },
    {
      "inputs": [],
      "name": "name",
      "outputs": [
        {
          "internalType": "string",
          "name": "",
          "type": "string"
        }
      ],
      "stateMutability": "view",
      "type": "function"
    },
    {
      "inputs": [],
      "name": "owner",
      "outputs": [
        {
          "internalType": "address",
          "name": "",
          "type": "address"
        }
      ],
      "stateMutability": "view",
      "type": "function"
    },
    {
      "inputs": [
        {
          "internalType": "uint256",
          "name": "tokenId",
          "type": "uint256"
        }
      ],
      "name": "ownerOf",
      "outputs": [
        {
          "internalType": "address",
          "name": "",
          "type": "address"
        }
      ],
      "stateMutability": "view",
      "type": "function"
    },
    {
      "inputs": [],
      "name": "renounceOwnership",
      "outputs": [],
      "stateMutability": "nonpayable",
      "type": "function"
    },
    {
      "inputs": [
        {
          "internalType": "address",
          "name": "from",
          "type": "address"
        },
        {
          "internalType": "address",
          "name": "to",
          "type": "address"
        },
        {
          "internalType": "uint256",
          "name": "tokenId",
          "type": "uint256"
        }
      ],
      "name": "safeTransferFrom",
      "outputs": [],
      "stateMutability": "nonpayable",
      "type": "function"
    },
    {
      "inputs": [
        {
          "internalType": "address",
          "name": "from",
          "type": "address"
        },
        {
          "internalType": "address",
          "name": "to",
          "type": "address"
        },
        {
          "internalType": "uint256",
          "name": "tokenId",
          "type": "uint256"
        },
        {
          "internalType": "bytes",
          "name": "data",
          "type": "bytes"
        }
      ],
      "name": "safeTransferFrom",
      "outputs": [],
      "stateMutability": "nonpayable",
      "type": "function"
    },
    {
      "inputs": [
        {
          "internalType": "address",
          "name": "operator",
          "type": "address"
        },
        {
          "internalType": "bool",
          "name": "approved",
          "type": "bool"
        }
      ],
      "name": "setApprovalForAll",
      "outputs": [],
      "stateMutability": "nonpayable",
      "type": "function"
    },
    {
      "inputs": [
        {
          "internalType": "bytes4",
          "name": "interfaceId",
          "type": "bytes4"
        }
      ],
      "name": "supportsInterface",
      "outputs": [
        {
          "internalType": "bool",
          "name": "",
          "type": "bool"
        }
      ],
      "stateMutability": "view",
      "type": "function"
    },
    {
      "inputs": [],
      "name": "symbol",
      "outputs": [
        {
          "internalType": "string",
          "name": "",
          "type": "string"
        }
      ],
      "stateMutability": "view",
      "type": "function"
    },
    {
      "inputs": [
        {
          "internalType": "uint256",
          "name": "tokenId",
          "type": "uint256"
        }
      ],
      "name": "tokenURI",
      "outputs": [
        {
          "internalType": "string",
          "name": "",
          "type": "string"
        }
      ],
      "stateMutability": "view",
      "type": "function"
    },
    {
      "inputs": [
        {
          "internalType": "address",
          "name": "from",
          "type": "address"
        },
        {
          "internalType": "address",
          "name": "to",
          "type": "address"
        },
        {
          "internalType": "uint256",
          "name": "tokenId",
          "type": "uint256"
        }
      ],
      "name": "transferFrom",
      "outputs": [],
      "stateMutability": "nonpayable",
      "type": "function"
    },
    {
      "inputs": [
        {
          "internalType": "address",
          "name": "newOwner",
          "type": "address"
        }
      ],
      "name": "transferOwnership",
      "outputs": [],
      "stateMutability": "nonpayable",
      "type": "function"
    }
  ],
  "bytecode": "0x60806040523480156200001157600080fd5b506040518060400160405280601081526020017f50726f66696c65496d6167654e667473000000000000000000000000000000008152506040518060400160405280600381526020017f50494e000000000000000000000000000000000000000000000000000000000081525081600090816200008f919062000412565b508060019081620000a1919062000412565b505050620000c4620000b8620000ca60201b60201c565b620000d260201b60201c565b620004f9565b600033905090565b6000600660009054906101000a900473ffffffffffffffffffffffffffffffffffffffff16905081600660006101000a81548173ffffffffffffffffffffffffffffffffffffffff021916908373ffffffffffffffffffffffffffffffffffffffff1602179055508173ffffffffffffffffffffffffffffffffffffffff168173ffffffffffffffffffffffffffffffffffffffff167f8be0079c531659141344cd1fd0a4f28419497f9722a3daafe3b4186f6b6457e060405160405180910390a35050565b600081519050919050565b7f4e487b7100000000000000000000000000000000000000000000000000000000600052604160045260246000fd5b7f4e487b7100000000000000000000000000000000000000000000000000000000600052602260045260246000fd5b600060028204905060018216806200021a57607f821691505b60208210810362000230576200022f620001d2565b5b50919050565b60008190508160005260206000209050919050565b60006020601f8301049050919050565b600082821b905092915050565b6000600883026200029a7fffffffffffffffffffffffffffffffffffffffffffffffffffffffffffffffff826200025b565b620002a686836200025b565b95508019841693508086168417925050509392505050565b6000819050919050565b6000819050919050565b6000620002f3620002ed620002e784620002be565b620002c8565b620002be565b9050919050565b6000819050919050565b6200030f83620002d2565b620003276200031e82620002fa565b84845462000268565b825550505050565b600090565b6200033e6200032f565b6200034b81848462000304565b505050565b5b8181101562000373576200036760008262000334565b60018101905062000351565b5050565b601f821115620003c2576200038c8162000236565b62000397846200024b565b81016020851015620003a7578190505b620003bf620003b6856200024b565b83018262000350565b50505b505050565b600082821c905092915050565b6000620003e760001984600802620003c7565b1980831691505092915050565b6000620004028383620003d4565b9150826002028217905092915050565b6200041d8262000198565b67ffffffffffffffff811115620004395762000438620001a3565b5b62000445825462000201565b6200045282828562000377565b600060209050601f8311600181146200048a576000841562000475578287015190505b620004818582620003f4565b865550620004f1565b601f1984166200049a8662000236565b60005b82811015620004c4578489015182556001820191506020850194506020810190506200049d565b86831015620004e45784890151620004e0601f891682620003d4565b8355505b6001600288020188555050505b505050505050565b612d9080620005096000396000f3fe608060405234801561001057600080fd5b50600436106101165760003560e01c8063715018a6116100a2578063b88d4fde11610071578063b88d4fde146102cd578063c87b56dd146102e9578063d0def52114610319578063e985e9c514610349578063f2fde38b1461037957610116565b8063715018a61461026b5780638da5cb5b1461027557806395d89b4114610293578063a22cb465146102b157610116565b806323b872dd116100e957806323b872dd146101b557806328904431146101d157806342842e0e146101ef5780636352211e1461020b57806370a082311461023b57610116565b806301ffc9a71461011b57806306fdde031461014b578063081812fc14610169578063095ea7b314610199575b600080fd5b610135600480360381019061013091906119fc565b610395565b6040516101429190611a44565b60405180910390f35b610153610477565b6040516101609190611aef565b60405180910390f35b610183600480360381019061017e9190611b47565b610509565b6040516101909190611bb5565b60405180910390f35b6101b360048036038101906101ae9190611bfc565b61054f565b005b6101cf60048036038101906101ca9190611c3c565b610666565b005b6101d96106c6565b6040516101e69190611e01565b60405180910390f35b61020960048036038101906102049190611c3c565b6107df565b005b61022560048036038101906102209190611b47565b6107ff565b6040516102329190611bb5565b60405180910390f35b61025560048036038101906102509190611e23565b610885565b6040516102629190611e5f565b60405180910390f35b61027361093c565b005b61027d610950565b60405161028a9190611bb5565b60405180910390f35b61029b61097a565b6040516102a89190611aef565b60405180910390f35b6102cb60048036038101906102c69190611ea6565b610a0c565b005b6102e760048036038101906102e2919061201b565b610a22565b005b61030360048036038101906102fe9190611b47565b610a84565b6040516103109190611aef565b60405180910390f35b610333600480360381019061032e919061213f565b610b77565b6040516103409190611e5f565b60405180910390f35b610363600480360381019061035e919061219b565b610bae565b6040516103709190611a44565b60405180910390f35b610393600480360381019061038e9190611e23565b610c42565b005b60007f80ac58cd000000000000000000000000000000000000000000000000000000007bffffffffffffffffffffffffffffffffffffffffffffffffffffffff1916827bffffffffffffffffffffffffffffffffffffffffffffffffffffffff1916148061046057507f5b5e139f000000000000000000000000000000000000000000000000000000007bffffffffffffffffffffffffffffffffffffffffffffffffffffffff1916827bffffffffffffffffffffffffffffffffffffffffffffffffffffffff1916145b80610470575061046f82610cc5565b5b9050919050565b6060600080546104869061220a565b80601f01602080910402602001604051908101604052809291908181526020018280546104b29061220a565b80156104ff5780601f106104d4576101008083540402835291602001916104ff565b820191906000526020600020905b8154815290600101906020018083116104e257829003601f168201915b5050505050905090565b600061051482610d2f565b6004600083815260200190815260200160002060009054906101000a900473ffffffffffffffffffffffffffffffffffffffff169050919050565b600061055a826107ff565b90508073ffffffffffffffffffffffffffffffffffffffff168373ffffffffffffffffffffffffffffffffffffffff16036105ca576040517f08c379a00000000000000000000000000000000000000000000000000000000081526004016105c1906122ad565b60405180910390fd5b8073ffffffffffffffffffffffffffffffffffffffff166105e9610d7a565b73ffffffffffffffffffffffffffffffffffffffff161480610618575061061781610612610d7a565b610bae565b5b610657576040517f08c379a000000000000000000000000000000000000000000000000000000000815260040161064e9061233f565b60405180910390fd5b6106618383610d82565b505050565b610677610671610d7a565b82610e3b565b6106b6576040517f08c379a00000000000000000000000000000000000000000000000000000000081526004016106ad906123d1565b60405180910390fd5b6106c1838383610ed0565b505050565b606060006106d460076111c9565b905060008167ffffffffffffffff8111156106f2576106f1611ef0565b5b60405190808252806020026020018201604052801561072b57816020015b61071861196f565b8152602001906001900390816107105790505b50905060005b8281116107d657610741816111d7565b156107c357600061075182610a84565b905060405180606001604052808381526020018281526020016040518060400160405280600181526020017f20000000000000000000000000000000000000000000000000000000000000008152508152508383815181106107b6576107b56123f1565b5b6020026020010181905250505b80806107ce9061244f565b915050610731565b50809250505090565b6107fa83838360405180602001604052806000815250610a22565b505050565b60008061080b83611218565b9050600073ffffffffffffffffffffffffffffffffffffffff168173ffffffffffffffffffffffffffffffffffffffff160361087c576040517f08c379a0000000000000000000000000000000000000000000000000000000008152600401610873906124e3565b60405180910390fd5b80915050919050565b60008073ffffffffffffffffffffffffffffffffffffffff168273ffffffffffffffffffffffffffffffffffffffff16036108f5576040517f08c379a00000000000000000000000000000000000000000000000000000000081526004016108ec90612575565b60405180910390fd5b600360008373ffffffffffffffffffffffffffffffffffffffff1673ffffffffffffffffffffffffffffffffffffffff168152602001908152602001600020549050919050565b610944611255565b61094e60006112d3565b565b6000600660009054906101000a900473ffffffffffffffffffffffffffffffffffffffff16905090565b6060600180546109899061220a565b80601f01602080910402602001604051908101604052809291908181526020018280546109b59061220a565b8015610a025780601f106109d757610100808354040283529160200191610a02565b820191906000526020600020905b8154815290600101906020018083116109e557829003601f168201915b5050505050905090565b610a1e610a17610d7a565b8383611399565b5050565b610a33610a2d610d7a565b83610e3b565b610a72576040517f08c379a0000000000000000000000000000000000000000000000000000000008152600401610a69906123d1565b60405180910390fd5b610a7e84848484611505565b50505050565b6060610a8f826111d7565b610ace576040517f08c379a0000000000000000000000000000000000000000000000000000000008152600401610ac5906125e1565b60405180910390fd5b6000600860008481526020019081526020016000208054610aee9061220a565b80601f0160208091040260200160405190810160405280929190818152602001828054610b1a9061220a565b8015610b675780601f10610b3c57610100808354040283529160200191610b67565b820191906000526020600020905b815481529060010190602001808311610b4a57829003601f168201915b5050505050905080915050919050565b600080610b8460076111c9565b9050610b908482611561565b610b9a818461177e565b610ba460076117a3565b8091505092915050565b6000600560008473ffffffffffffffffffffffffffffffffffffffff1673ffffffffffffffffffffffffffffffffffffffff16815260200190815260200160002060008373ffffffffffffffffffffffffffffffffffffffff1673ffffffffffffffffffffffffffffffffffffffff16815260200190815260200160002060009054906101000a900460ff16905092915050565b610c4a611255565b600073ffffffffffffffffffffffffffffffffffffffff168173ffffffffffffffffffffffffffffffffffffffff1603610cb9576040517f08c379a0000000000000000000000000000000000000000000000000000000008152600401610cb090612673565b60405180910390fd5b610cc2816112d3565b50565b60007f01ffc9a7000000000000000000000000000000000000000000000000000000007bffffffffffffffffffffffffffffffffffffffffffffffffffffffff1916827bffffffffffffffffffffffffffffffffffffffffffffffffffffffff1916149050919050565b610d38816111d7565b610d77576040517f08c379a0000000000000000000000000000000000000000000000000000000008152600401610d6e906124e3565b60405180910390fd5b50565b600033905090565b816004600083815260200190815260200160002060006101000a81548173ffffffffffffffffffffffffffffffffffffffff021916908373ffffffffffffffffffffffffffffffffffffffff160217905550808273ffffffffffffffffffffffffffffffffffffffff16610df5836107ff565b73ffffffffffffffffffffffffffffffffffffffff167f8c5be1e5ebec7d5bd14f71427d1e84f3dd0314c0f7b2291e5b200ac8c7c3b92560405160405180910390a45050565b600080610e47836107ff565b90508073ffffffffffffffffffffffffffffffffffffffff168473ffffffffffffffffffffffffffffffffffffffff161480610e895750610e888185610bae565b5b80610ec757508373ffffffffffffffffffffffffffffffffffffffff16610eaf84610509565b73ffffffffffffffffffffffffffffffffffffffff16145b91505092915050565b8273ffffffffffffffffffffffffffffffffffffffff16610ef0826107ff565b73ffffffffffffffffffffffffffffffffffffffff1614610f46576040517f08c379a0000000000000000000000000000000000000000000000000000000008152600401610f3d90612705565b60405180910390fd5b600073ffffffffffffffffffffffffffffffffffffffff168273ffffffffffffffffffffffffffffffffffffffff1603610fb5576040517f08c379a0000000000000000000000000000000000000000000000000000000008152600401610fac90612797565b60405180910390fd5b610fc283838360016117b9565b8273ffffffffffffffffffffffffffffffffffffffff16610fe2826107ff565b73ffffffffffffffffffffffffffffffffffffffff1614611038576040517f08c379a000000000000000000000000000000000000000000000000000000000815260040161102f90612705565b60405180910390fd5b6004600082815260200190815260200160002060006101000a81549073ffffffffffffffffffffffffffffffffffffffff02191690556001600360008573ffffffffffffffffffffffffffffffffffffffff1673ffffffffffffffffffffffffffffffffffffffff168152602001908152602001600020600082825403925050819055506001600360008473ffffffffffffffffffffffffffffffffffffffff1673ffffffffffffffffffffffffffffffffffffffff16815260200190815260200160002060008282540192505081905550816002600083815260200190815260200160002060006101000a81548173ffffffffffffffffffffffffffffffffffffffff021916908373ffffffffffffffffffffffffffffffffffffffff160217905550808273ffffffffffffffffffffffffffffffffffffffff168473ffffffffffffffffffffffffffffffffffffffff167fddf252ad1be2c89b69c2b068fc378daa952ba7f163c4a11628f55a4df523b3ef60405160405180910390a46111c483838360016117bf565b505050565b600081600001549050919050565b60008073ffffffffffffffffffffffffffffffffffffffff166111f983611218565b73ffffffffffffffffffffffffffffffffffffffff1614159050919050565b60006002600083815260200190815260200160002060009054906101000a900473ffffffffffffffffffffffffffffffffffffffff169050919050565b61125d610d7a565b73ffffffffffffffffffffffffffffffffffffffff1661127b610950565b73ffffffffffffffffffffffffffffffffffffffff16146112d1576040517f08c379a00000000000000000000000000000000000000000000000000000000081526004016112c890612803565b60405180910390fd5b565b6000600660009054906101000a900473ffffffffffffffffffffffffffffffffffffffff16905081600660006101000a81548173ffffffffffffffffffffffffffffffffffffffff021916908373ffffffffffffffffffffffffffffffffffffffff1602179055508173ffffffffffffffffffffffffffffffffffffffff168173ffffffffffffffffffffffffffffffffffffffff167f8be0079c531659141344cd1fd0a4f28419497f9722a3daafe3b4186f6b6457e060405160405180910390a35050565b8173ffffffffffffffffffffffffffffffffffffffff168373ffffffffffffffffffffffffffffffffffffffff1603611407576040517f08c379a00000000000000000000000000000000000000000000000000000000081526004016113fe9061286f565b60405180910390fd5b80600560008573ffffffffffffffffffffffffffffffffffffffff1673ffffffffffffffffffffffffffffffffffffffff16815260200190815260200160002060008473ffffffffffffffffffffffffffffffffffffffff1673ffffffffffffffffffffffffffffffffffffffff16815260200190815260200160002060006101000a81548160ff0219169083151502179055508173ffffffffffffffffffffffffffffffffffffffff168373ffffffffffffffffffffffffffffffffffffffff167f17307eab39ab6107e8899845ad3d59bd9653f200f220920489ca2b5937696c31836040516114f89190611a44565b60405180910390a3505050565b611510848484610ed0565b61151c848484846117c5565b61155b576040517f08c379a000000000000000000000000000000000000000000000000000000000815260040161155290612901565b60405180910390fd5b50505050565b600073ffffffffffffffffffffffffffffffffffffffff168273ffffffffffffffffffffffffffffffffffffffff16036115d0576040517f08c379a00000000000000000000000000000000000000000000000000000000081526004016115c79061296d565b60405180910390fd5b6115d9816111d7565b15611619576040517f08c379a0000000000000000000000000000000000000000000000000000000008152600401611610906129d9565b60405180910390fd5b6116276000838360016117b9565b611630816111d7565b15611670576040517f08c379a0000000000000000000000000000000000000000000000000000000008152600401611667906129d9565b60405180910390fd5b6001600360008473ffffffffffffffffffffffffffffffffffffffff1673ffffffffffffffffffffffffffffffffffffffff16815260200190815260200160002060008282540192505081905550816002600083815260200190815260200160002060006101000a81548173ffffffffffffffffffffffffffffffffffffffff021916908373ffffffffffffffffffffffffffffffffffffffff160217905550808273ffffffffffffffffffffffffffffffffffffffff16600073ffffffffffffffffffffffffffffffffffffffff167fddf252ad1be2c89b69c2b068fc378daa952ba7f163c4a11628f55a4df523b3ef60405160405180910390a461177a6000838360016117bf565b5050565b8060086000848152602001908152602001600020908161179e9190612ba5565b505050565b6001816000016000828254019250508190555050565b50505050565b50505050565b60006117e68473ffffffffffffffffffffffffffffffffffffffff1661194c565b1561193f578373ffffffffffffffffffffffffffffffffffffffff1663150b7a0261180f610d7a565b8786866040518563ffffffff1660e01b81526004016118319493929190612ccc565b6020604051808303816000875af192505050801561186d57506040513d601f19601f8201168201806040525081019061186a9190612d2d565b60015b6118ef573d806000811461189d576040519150601f19603f3d011682016040523d82523d6000602084013e6118a2565b606091505b5060008151036118e7576040517f08c379a00000000000000000000000000000000000000000000000000000000081526004016118de90612901565b60405180910390fd5b805181602001fd5b63150b7a0260e01b7bffffffffffffffffffffffffffffffffffffffffffffffffffffffff1916817bffffffffffffffffffffffffffffffffffffffffffffffffffffffff191614915050611944565b600190505b949350505050565b6000808273ffffffffffffffffffffffffffffffffffffffff163b119050919050565b60405180606001604052806000815260200160608152602001606081525090565b6000604051905090565b600080fd5b600080fd5b60007fffffffff0000000000000000000000000000000000000000000000000000000082169050919050565b6119d9816119a4565b81146119e457600080fd5b50565b6000813590506119f6816119d0565b92915050565b600060208284031215611a1257611a1161199a565b5b6000611a20848285016119e7565b91505092915050565b60008115159050919050565b611a3e81611a29565b82525050565b6000602082019050611a596000830184611a35565b92915050565b600081519050919050565b600082825260208201905092915050565b60005b83811015611a99578082015181840152602081019050611a7e565b60008484015250505050565b6000601f19601f8301169050919050565b6000611ac182611a5f565b611acb8185611a6a565b9350611adb818560208601611a7b565b611ae481611aa5565b840191505092915050565b60006020820190508181036000830152611b098184611ab6565b905092915050565b6000819050919050565b611b2481611b11565b8114611b2f57600080fd5b50565b600081359050611b4181611b1b565b92915050565b600060208284031215611b5d57611b5c61199a565b5b6000611b6b84828501611b32565b91505092915050565b600073ffffffffffffffffffffffffffffffffffffffff82169050919050565b6000611b9f82611b74565b9050919050565b611baf81611b94565b82525050565b6000602082019050611bca6000830184611ba6565b92915050565b611bd981611b94565b8114611be457600080fd5b50565b600081359050611bf681611bd0565b92915050565b60008060408385031215611c1357611c1261199a565b5b6000611c2185828601611be7565b9250506020611c3285828601611b32565b9150509250929050565b600080600060608486031215611c5557611c5461199a565b5b6000611c6386828701611be7565b9350506020611c7486828701611be7565b9250506040611c8586828701611b32565b9150509250925092565b600081519050919050565b600082825260208201905092915050565b6000819050602082019050919050565b611cc481611b11565b82525050565b600082825260208201905092915050565b6000611ce682611a5f565b611cf08185611cca565b9350611d00818560208601611a7b565b611d0981611aa5565b840191505092915050565b6000606083016000830151611d2c6000860182611cbb565b5060208301518482036020860152611d448282611cdb565b91505060408301518482036040860152611d5e8282611cdb565b9150508091505092915050565b6000611d778383611d14565b905092915050565b6000602082019050919050565b6000611d9782611c8f565b611da18185611c9a565b935083602082028501611db385611cab565b8060005b85811015611def5784840389528151611dd08582611d6b565b9450611ddb83611d7f565b925060208a01995050600181019050611db7565b50829750879550505050505092915050565b60006020820190508181036000830152611e1b8184611d8c565b905092915050565b600060208284031215611e3957611e3861199a565b5b6000611e4784828501611be7565b91505092915050565b611e5981611b11565b82525050565b6000602082019050611e746000830184611e50565b92915050565b611e8381611a29565b8114611e8e57600080fd5b50565b600081359050611ea081611e7a565b92915050565b60008060408385031215611ebd57611ebc61199a565b5b6000611ecb85828601611be7565b9250506020611edc85828601611e91565b9150509250929050565b600080fd5b600080fd5b7f4e487b7100000000000000000000000000000000000000000000000000000000600052604160045260246000fd5b611f2882611aa5565b810181811067ffffffffffffffff82111715611f4757611f46611ef0565b5b80604052505050565b6000611f5a611990565b9050611f668282611f1f565b919050565b600067ffffffffffffffff821115611f8657611f85611ef0565b5b611f8f82611aa5565b9050602081019050919050565b82818337600083830152505050565b6000611fbe611fb984611f6b565b611f50565b905082815260208101848484011115611fda57611fd9611eeb565b5b611fe5848285611f9c565b509392505050565b600082601f83011261200257612001611ee6565b5b8135612012848260208601611fab565b91505092915050565b600080600080608085870312156120355761203461199a565b5b600061204387828801611be7565b945050602061205487828801611be7565b935050604061206587828801611b32565b925050606085013567ffffffffffffffff8111156120865761208561199f565b5b61209287828801611fed565b91505092959194509250565b600067ffffffffffffffff8211156120b9576120b8611ef0565b5b6120c282611aa5565b9050602081019050919050565b60006120e26120dd8461209e565b611f50565b9050828152602081018484840111156120fe576120fd611eeb565b5b612109848285611f9c565b509392505050565b600082601f83011261212657612125611ee6565b5b81356121368482602086016120cf565b91505092915050565b600080604083850312156121565761215561199a565b5b600061216485828601611be7565b925050602083013567ffffffffffffffff8111156121855761218461199f565b5b61219185828601612111565b9150509250929050565b600080604083850312156121b2576121b161199a565b5b60006121c085828601611be7565b92505060206121d185828601611be7565b9150509250929050565b7f4e487b7100000000000000000000000000000000000000000000000000000000600052602260045260246000fd5b6000600282049050600182168061222257607f821691505b602082108103612235576122346121db565b5b50919050565b7f4552433732313a20617070726f76616c20746f2063757272656e74206f776e6560008201527f7200000000000000000000000000000000000000000000000000000000000000602082015250565b6000612297602183611a6a565b91506122a28261223b565b604082019050919050565b600060208201905081810360008301526122c68161228a565b9050919050565b7f4552433732313a20617070726f76652063616c6c6572206973206e6f7420746f60008201527f6b656e206f776e6572206f7220617070726f76656420666f7220616c6c000000602082015250565b6000612329603d83611a6a565b9150612334826122cd565b604082019050919050565b600060208201905081810360008301526123588161231c565b9050919050565b7f4552433732313a2063616c6c6572206973206e6f7420746f6b656e206f776e6560008201527f72206f7220617070726f76656400000000000000000000000000000000000000602082015250565b60006123bb602d83611a6a565b91506123c68261235f565b604082019050919050565b600060208201905081810360008301526123ea816123ae565b9050919050565b7f4e487b7100000000000000000000000000000000000000000000000000000000600052603260045260246000fd5b7f4e487b7100000000000000000000000000000000000000000000000000000000600052601160045260246000fd5b600061245a82611b11565b91507fffffffffffffffffffffffffffffffffffffffffffffffffffffffffffffffff820361248c5761248b612420565b5b600182019050919050565b7f4552433732313a20696e76616c696420746f6b656e2049440000000000000000600082015250565b60006124cd601883611a6a565b91506124d882612497565b602082019050919050565b600060208201905081810360008301526124fc816124c0565b9050919050565b7f4552433732313a2061646472657373207a65726f206973206e6f74206120766160008201527f6c6964206f776e65720000000000000000000000000000000000000000000000602082015250565b600061255f602983611a6a565b915061256a82612503565b604082019050919050565b6000602082019050818103600083015261258e81612552565b9050919050565b7f555249206e6f74206578697374206f6e20746861742049440000000000000000600082015250565b60006125cb601883611a6a565b91506125d682612595565b602082019050919050565b600060208201905081810360008301526125fa816125be565b9050919050565b7f4f776e61626c653a206e6577206f776e657220697320746865207a65726f206160008201527f6464726573730000000000000000000000000000000000000000000000000000602082015250565b600061265d602683611a6a565b915061266882612601565b604082019050919050565b6000602082019050818103600083015261268c81612650565b9050919050565b7f4552433732313a207472616e736665722066726f6d20696e636f72726563742060008201527f6f776e6572000000000000000000000000000000000000000000000000000000602082015250565b60006126ef602583611a6a565b91506126fa82612693565b604082019050919050565b6000602082019050818103600083015261271e816126e2565b9050919050565b7f4552433732313a207472616e7366657220746f20746865207a65726f2061646460008201527f7265737300000000000000000000000000000000000000000000000000000000602082015250565b6000612781602483611a6a565b915061278c82612725565b604082019050919050565b600060208201905081810360008301526127b081612774565b9050919050565b7f4f776e61626c653a2063616c6c6572206973206e6f7420746865206f776e6572600082015250565b60006127ed602083611a6a565b91506127f8826127b7565b602082019050919050565b6000602082019050818103600083015261281c816127e0565b9050919050565b7f4552433732313a20617070726f766520746f2063616c6c657200000000000000600082015250565b6000612859601983611a6a565b915061286482612823565b602082019050919050565b600060208201905081810360008301526128888161284c565b9050919050565b7f4552433732313a207472616e7366657220746f206e6f6e20455243373231526560008201527f63656976657220696d706c656d656e7465720000000000000000000000000000602082015250565b60006128eb603283611a6a565b91506128f68261288f565b604082019050919050565b6000602082019050818103600083015261291a816128de565b9050919050565b7f4552433732313a206d696e7420746f20746865207a65726f2061646472657373600082015250565b6000612957602083611a6a565b915061296282612921565b602082019050919050565b600060208201905081810360008301526129868161294a565b9050919050565b7f4552433732313a20746f6b656e20616c7265616479206d696e74656400000000600082015250565b60006129c3601c83611a6a565b91506129ce8261298d565b602082019050919050565b600060208201905081810360008301526129f2816129b6565b9050919050565b60008190508160005260206000209050919050565b60006020601f8301049050919050565b600082821b905092915050565b600060088302612a5b7fffffffffffffffffffffffffffffffffffffffffffffffffffffffffffffffff82612a1e565b612a658683612a1e565b95508019841693508086168417925050509392505050565b6000819050919050565b6000612aa2612a9d612a9884611b11565b612a7d565b611b11565b9050919050565b6000819050919050565b612abc83612a87565b612ad0612ac882612aa9565b848454612a2b565b825550505050565b600090565b612ae5612ad8565b612af0818484612ab3565b505050565b5b81811015612b1457612b09600082612add565b600181019050612af6565b5050565b601f821115612b5957612b2a816129f9565b612b3384612a0e565b81016020851015612b42578190505b612b56612b4e85612a0e565b830182612af5565b50505b505050565b600082821c905092915050565b6000612b7c60001984600802612b5e565b1980831691505092915050565b6000612b958383612b6b565b9150826002028217905092915050565b612bae82611a5f565b67ffffffffffffffff811115612bc757612bc6611ef0565b5b612bd1825461220a565b612bdc828285612b18565b600060209050601f831160018114612c0f5760008415612bfd578287015190505b612c078582612b89565b865550612c6f565b601f198416612c1d866129f9565b60005b82811015612c4557848901518255600182019150602085019450602081019050612c20565b86831015612c625784890151612c5e601f891682612b6b565b8355505b6001600288020188555050505b505050505050565b600081519050919050565b600082825260208201905092915050565b6000612c9e82612c77565b612ca88185612c82565b9350612cb8818560208601611a7b565b612cc181611aa5565b840191505092915050565b6000608082019050612ce16000830187611ba6565b612cee6020830186611ba6565b612cfb6040830185611e50565b8181036060830152612d0d8184612c93565b905095945050505050565b600081519050612d27816119d0565b92915050565b600060208284031215612d4357612d4261199a565b5b6000612d5184828501612d18565b9150509291505056fea2646970667358221220bb9716d9a5d2ec2a12faa46d02cabe41b2a82bf36e67913f82dcd48a6cbdb8b864736f6c63430008120033",
  "linkReferences": {},
  "deployedLinkReferences": {}
}